{
  "contractName": "Voting",
  "abi": [
    {
      "constant": true,
      "inputs": [
        {
          "name": "",
          "type": "bytes32"
        }
      ],
      "name": "votesReceived",
      "outputs": [
        {
          "name": "",
          "type": "uint8"
        }
      ],
      "payable": false,
      "stateMutability": "view",
      "type": "function"
    },
    {
      "constant": true,
      "inputs": [
        {
          "name": "",
          "type": "uint256"
        }
      ],
      "name": "candidateList",
      "outputs": [
        {
          "name": "",
          "type": "bytes32"
        }
      ],
      "payable": false,
      "stateMutability": "view",
      "type": "function"
    },
    {
      "inputs": [
        {
          "name": "candidateNames",
          "type": "bytes32[]"
        }
      ],
      "payable": false,
      "stateMutability": "nonpayable",
      "type": "constructor"
    },
    {
      "constant": true,
      "inputs": [
        {
          "name": "candidateName",
          "type": "bytes32"
        }
      ],
      "name": "totalVotesFor",
      "outputs": [
        {
          "name": "",
          "type": "uint8"
        }
      ],
      "payable": false,
      "stateMutability": "view",
      "type": "function"
    },
    {
      "constant": false,
      "inputs": [
        {
          "name": "candidateName",
          "type": "bytes32"
        }
      ],
      "name": "voteForCandidate",
      "outputs": [],
      "payable": false,
      "stateMutability": "nonpayable",
      "type": "function"
    }
  ],
  "bytecode": "0x608060405234801561001057600080fd5b506040516103c13803806103c1833981018060405281019080805182019291905050508060009080519060200190610049929190610050565b50506100c8565b828054828255906000526020600020908101928215610092579160200282015b82811115610091578251829060001916905591602001919060010190610070565b5b50905061009f91906100a3565b5090565b6100c591905b808211156100c15760008160009055506001016100a9565b5090565b90565b6102ea806100d76000396000f300608060405260043610610062576000357c0100000000000000000000000000000000000000000000000000000000900463ffffffff1680632f265cf7146100675780637021939f146100b2578063b13c744b146100fd578063cc9ab26714610146575b600080fd5b34801561007357600080fd5b506100966004803603810190808035600019169060200190929190505050610177565b604051808260ff1660ff16815260200191505060405180910390f35b3480156100be57600080fd5b506100e160048036038101908080356000191690602001909291905050506101bd565b604051808260ff1660ff16815260200191505060405180910390f35b34801561010957600080fd5b50610128600480360381019080803590602001909291905050506101dd565b60405180826000191660001916815260200191505060405180910390f35b34801561015257600080fd5b506101756004803603810190808035600019169060200190929190505050610200565b005b60006101828261025d565b151561018d57600080fd5b60016000836000191660001916815260200190815260200160002060009054906101000a900460ff169050919050565b60016020528060005260406000206000915054906101000a900460ff1681565b6000818154811015156101ec57fe5b906000526020600020016000915090505481565b6102098161025d565b151561021457600080fd5b6001806000836000191660001916815260200190815260200160002060008282829054906101000a900460ff160192506101000a81548160ff021916908360ff16021790555050565b600080600090505b6000805490508160ff1610156102b75760008160ff1681548110151561028757fe5b906000526020600020015460001916836000191614156102aa57600191506102b8565b8080600101915050610265565b5b509190505600a165627a7a723058208cabd27eb6bd1bc6bf4189f2de59b93240675895b1ebed70be8851b0c15158910029",
  "source": "pragma solidity ^0.4.22;\r\n\r\ncontract Voting {\r\n   \r\n    //候选人列表\r\n    bytes32[] public candidateList;\r\n     //每一个候选人票数\r\n    mapping (bytes32 => uint8) public votesReceived;\r\n   \r\n    \r\n    constructor (bytes32[] candidateNames) public {\r\n        candidateList = candidateNames;\r\n    }\r\n    \r\n \r\n    // 查询候选人得票数\r\n    function totalVotesFor(bytes32 candidateName)  public view returns (uint8){\r\n        require(validCandidate(candidateName));\r\n        return votesReceived[candidateName];\r\n    }\r\n\r\n    // 投票\r\n    function voteForCandidate(bytes32 candidateName) public {\r\n        require(validCandidate(candidateName));\r\n        votesReceived[candidateName] +=1;\r\n    }\r\n    // 验证投票候选人\r\n    function validCandidate(bytes32 candidateName) internal view  returns(bool){\r\n        for (uint8 i = 0; i < candidateList.length; i++) {\r\n            if ( candidateName == candidateList[i]){\r\n                return true;\r\n            }\r\n        }\r\n    }\r\n}",
  "sourcePath": "/root/ethereum/dapp/truffle_voting_dapp/contracts/Voting.sol",
  "compiler": {
    "name": "solc",
    "version": "0.4.24+commit.e67f0147.Emscripten.clang"
  },
  "schemaVersion": "2.0.1",
  "updatedAt": "2018-11-11T02:47:19.460Z"
}